{
  "contractName": "BondTrading",
  "abi": [
    {
      "inputs": [
        {
          "internalType": "address",
          "name": "_bondTokenAddress",
          "type": "address"
        },
        {
          "internalType": "address",
          "name": "initialOwner",
          "type": "address"
        }
      ],
      "stateMutability": "nonpayable",
      "type": "constructor"
    },
    {
      "inputs": [
        {
          "internalType": "address",
          "name": "owner",
          "type": "address"
        }
      ],
      "name": "OwnableInvalidOwner",
      "type": "error"
    },
    {
      "inputs": [
        {
          "internalType": "address",
          "name": "account",
          "type": "address"
        }
      ],
      "name": "OwnableUnauthorizedAccount",
      "type": "error"
    },
    {
      "anonymous": false,
      "inputs": [
        {
          "indexed": false,
          "internalType": "uint256",
          "name": "bondId",
          "type": "uint256"
        },
        {
          "indexed": false,
          "internalType": "string",
          "name": "name",
          "type": "string"
        },
        {
          "indexed": false,
          "internalType": "string",
          "name": "issuer",
          "type": "string"
        },
        {
          "indexed": false,
          "internalType": "uint256",
          "name": "faceValue",
          "type": "uint256"
        }
      ],
      "name": "BondIssued",
      "type": "event"
    },
    {
      "anonymous": false,
      "inputs": [
        {
          "indexed": false,
          "internalType": "uint256",
          "name": "bondId",
          "type": "uint256"
        },
        {
          "indexed": false,
          "internalType": "address",
          "name": "buyer",
          "type": "address"
        },
        {
          "indexed": false,
          "internalType": "uint256",
          "name": "amount",
          "type": "uint256"
        }
      ],
      "name": "BondPurchased",
      "type": "event"
    },
    {
      "anonymous": false,
      "inputs": [
        {
          "indexed": false,
          "internalType": "uint256",
          "name": "bondId",
          "type": "uint256"
        },
        {
          "indexed": false,
          "internalType": "address",
          "name": "seller",
          "type": "address"
        },
        {
          "indexed": false,
          "internalType": "address",
          "name": "buyer",
          "type": "address"
        },
        {
          "indexed": false,
          "internalType": "uint256",
          "name": "amount",
          "type": "uint256"
        }
      ],
      "name": "BondSold",
      "type": "event"
    },
    {
      "anonymous": false,
      "inputs": [
        {
          "indexed": true,
          "internalType": "address",
          "name": "previousOwner",
          "type": "address"
        },
        {
          "indexed": true,
          "internalType": "address",
          "name": "newOwner",
          "type": "address"
        }
      ],
      "name": "OwnershipTransferred",
      "type": "event"
    },
    {
      "inputs": [
        {
          "internalType": "uint256",
          "name": "",
          "type": "uint256"
        },
        {
          "internalType": "address",
          "name": "",
          "type": "address"
        }
      ],
      "name": "bondBalances",
      "outputs": [
        {
          "internalType": "uint256",
          "name": "",
          "type": "uint256"
        }
      ],
      "stateMutability": "view",
      "type": "function",
      "constant": true
    },
    {
      "inputs": [],
      "name": "bondCount",
      "outputs": [
        {
          "internalType": "uint256",
          "name": "",
          "type": "uint256"
        }
      ],
      "stateMutability": "view",
      "type": "function",
      "constant": true
    },
    {
      "inputs": [
        {
          "internalType": "uint256",
          "name": "",
          "type": "uint256"
        },
        {
          "internalType": "uint256",
          "name": "",
          "type": "uint256"
        }
      ],
      "name": "bondHolders",
      "outputs": [
        {
          "internalType": "address",
          "name": "",
          "type": "address"
        }
      ],
      "stateMutability": "view",
      "type": "function",
      "constant": true
    },
    {
      "inputs": [],
      "name": "bondToken",
      "outputs": [
        {
          "internalType": "contract IERC20",
          "name": "",
          "type": "address"
        }
      ],
      "stateMutability": "view",
      "type": "function",
      "constant": true
    },
    {
      "inputs": [
        {
          "internalType": "uint256",
          "name": "",
          "type": "uint256"
        }
      ],
      "name": "bonds",
      "outputs": [
        {
          "internalType": "string",
          "name": "name",
          "type": "string"
        },
        {
          "internalType": "string",
          "name": "issuer",
          "type": "string"
        },
        {
          "internalType": "uint256",
          "name": "faceValue",
          "type": "uint256"
        },
        {
          "internalType": "uint256",
          "name": "maturityDate",
          "type": "uint256"
        },
        {
          "internalType": "uint256",
          "name": "interestRate",
          "type": "uint256"
        },
        {
          "internalType": "uint256",
          "name": "totalSupply",
          "type": "uint256"
        },
        {
          "internalType": "bool",
          "name": "isActive",
          "type": "bool"
        }
      ],
      "stateMutability": "view",
      "type": "function",
      "constant": true
    },
    {
      "inputs": [],
      "name": "owner",
      "outputs": [
        {
          "internalType": "address",
          "name": "",
          "type": "address"
        }
      ],
      "stateMutability": "view",
      "type": "function",
      "constant": true
    },
    {
      "inputs": [],
      "name": "renounceOwnership",
      "outputs": [],
      "stateMutability": "nonpayable",
      "type": "function"
    },
    {
      "inputs": [
        {
          "internalType": "address",
          "name": "newOwner",
          "type": "address"
        }
      ],
      "name": "transferOwnership",
      "outputs": [],
      "stateMutability": "nonpayable",
      "type": "function"
    },
    {
      "inputs": [
        {
          "internalType": "string",
          "name": "_name",
          "type": "string"
        },
        {
          "internalType": "string",
          "name": "_issuer",
          "type": "string"
        },
        {
          "internalType": "uint256",
          "name": "_faceValue",
          "type": "uint256"
        },
        {
          "internalType": "uint256",
          "name": "_maturityDate",
          "type": "uint256"
        },
        {
          "internalType": "uint256",
          "name": "_interestRate",
          "type": "uint256"
        },
        {
          "internalType": "uint256",
          "name": "_supply",
          "type": "uint256"
        }
      ],
      "name": "issueBond",
      "outputs": [],
      "stateMutability": "nonpayable",
      "type": "function"
    },
    {
      "inputs": [
        {
          "internalType": "uint256",
          "name": "_bondId",
          "type": "uint256"
        },
        {
          "internalType": "uint256",
          "name": "_amount",
          "type": "uint256"
        }
      ],
      "name": "purchaseBond",
      "outputs": [],
      "stateMutability": "nonpayable",
      "type": "function"
    },
    {
      "inputs": [
        {
          "internalType": "uint256",
          "name": "_bondId",
          "type": "uint256"
        },
        {
          "internalType": "uint256",
          "name": "_amount",
          "type": "uint256"
        },
        {
          "internalType": "address",
          "name": "_buyer",
          "type": "address"
        }
      ],
      "name": "sellBond",
      "outputs": [],
      "stateMutability": "nonpayable",
      "type": "function"
    },
    {
      "inputs": [
        {
          "internalType": "uint256",
          "name": "_bondId",
          "type": "uint256"
        },
        {
          "internalType": "address",
          "name": "_holder",
          "type": "address"
        }
      ],
      "name": "getBondHolderAmount",
      "outputs": [
        {
          "internalType": "uint256",
          "name": "",
          "type": "uint256"
        }
      ],
      "stateMutability": "view",
      "type": "function",
      "constant": true
    },
    {
      "inputs": [
        {
          "internalType": "uint256",
          "name": "_bondId",
          "type": "uint256"
        },
        {
          "internalType": "uint256",
          "name": "_amount",
          "type": "uint256"
        }
      ],
      "name": "redeemBond",
      "outputs": [],
      "stateMutability": "nonpayable",
      "type": "function"
    },
    {
      "inputs": [
        {
          "internalType": "uint256",
          "name": "_bondId",
          "type": "uint256"
        }
      ],
      "name": "getBondInfo",
      "outputs": [
        {
          "components": [
            {
              "internalType": "string",
              "name": "name",
              "type": "string"
            },
            {
              "internalType": "string",
              "name": "issuer",
              "type": "string"
            },
            {
              "internalType": "uint256",
              "name": "faceValue",
              "type": "uint256"
            },
            {
              "internalType": "uint256",
              "name": "maturityDate",
              "type": "uint256"
            },
            {
              "internalType": "uint256",
              "name": "interestRate",
              "type": "uint256"
            },
            {
              "internalType": "uint256",
              "name": "totalSupply",
              "type": "uint256"
            },
            {
              "internalType": "bool",
              "name": "isActive",
              "type": "bool"
            }
          ],
          "internalType": "struct BondTrading.Bond",
          "name": "",
          "type": "tuple"
        }
      ],
      "stateMutability": "view",
      "type": "function",
      "constant": true
    },
    {
      "inputs": [
        {
          "internalType": "uint256",
          "name": "_bondId",
          "type": "uint256"
        }
      ],
      "name": "getBondHolders",
      "outputs": [
        {
          "internalType": "address[]",
          "name": "",
          "type": "address[]"
        }
      ],
      "stateMutability": "view",
      "type": "function",
      "constant": true
    }
  ],
  "bytecode": "0x608060405234801562000010575f80fd5b5060405162002b8c38038062002b8c83398181016040528101906200003691906200022a565b805f73ffffffffffffffffffffffffffffffffffffffff168173ffffffffffffffffffffffffffffffffffffffff1603620000aa575f6040517f1e4fbdf7000000000000000000000000000000000000000000000000000000008152600401620000a1919062000280565b60405180910390fd5b620000bb816200010460201b60201c565b508160055f6101000a81548173ffffffffffffffffffffffffffffffffffffffff021916908373ffffffffffffffffffffffffffffffffffffffff16021790555050506200029b565b5f805f9054906101000a900473ffffffffffffffffffffffffffffffffffffffff169050815f806101000a81548173ffffffffffffffffffffffffffffffffffffffff021916908373ffffffffffffffffffffffffffffffffffffffff1602179055508173ffffffffffffffffffffffffffffffffffffffff168173ffffffffffffffffffffffffffffffffffffffff167f8be0079c531659141344cd1fd0a4f28419497f9722a3daafe3b4186f6b6457e060405160405180910390a35050565b5f80fd5b5f73ffffffffffffffffffffffffffffffffffffffff82169050919050565b5f620001f482620001c9565b9050919050565b6200020681620001e8565b811462000211575f80fd5b50565b5f815190506200022481620001fb565b92915050565b5f8060408385031215620002435762000242620001c5565b5b5f620002528582860162000214565b9250506020620002658582860162000214565b9150509250929050565b6200027a81620001e8565b82525050565b5f602082019050620002955f8301846200026f565b92915050565b6128e380620002a95f395ff3fe608060405234801561000f575f80fd5b50600436106100f3575f3560e01c80638da5cb5b11610095578063c36a140f11610064578063c36a140f14610275578063cb25b7d014610291578063f2fde38b146102c1578063f5140ba4146102dd576100f3565b80638da5cb5b146101ff5780638edd4d241461021d578063a21d180c1461023b578063c28f439214610257576100f3565b8063514efb37116100d1578063514efb37146101735780635f1c17c01461018f578063715018a6146101c55780638cf828ef146101cf576100f3565b806310495bde146100f757806323f87a31146101135780633392bec814610143575b5f80fd5b610111600480360381019061010c9190611816565b61030d565b005b61012d60048036038101906101289190611816565b61057f565b60405161013a9190611893565b60405180910390f35b61015d600480360381019061015891906118ac565b6105c7565b60405161016a9190611a2a565b60405180910390f35b61018d60048036038101906101889190611816565b610753565b005b6101a960048036038101906101a491906118ac565b610c19565b6040516101bc9796959493929190611ab0565b60405180910390f35b6101cd610d6f565b005b6101e960048036038101906101e491906118ac565b610d82565b6040516101f69190611be2565b60405180910390f35b610207610e1e565b6040516102149190611893565b60405180910390f35b610225610e45565b6040516102329190611c02565b60405180910390f35b61025560048036038101906102509190611c45565b610e4b565b005b61025f611404565b60405161026c9190611cf0565b60405180910390f35b61028f600480360381019061028a9190611e35565b611429565b005b6102ab60048036038101906102a69190611ef6565b61154f565b6040516102b89190611c02565b60405180910390f35b6102db60048036038101906102d69190611f34565b61156f565b005b6102f760048036038101906102f29190611ef6565b6115f3565b6040516103049190611c02565b60405180910390f35b60015f8381526020019081526020015f206006015f9054906101000a900460ff1661036d576040517f08c379a000000000000000000000000000000000000000000000000000000000815260040161036490611fa9565b60405180910390fd5b5f81116103af576040517f08c379a00000000000000000000000000000000000000000000000000000000081526004016103a690612011565b60405180910390fd5b8060035f8481526020019081526020015f205f3373ffffffffffffffffffffffffffffffffffffffff1673ffffffffffffffffffffffffffffffffffffffff1681526020019081526020015f2054101561043e576040517f08c379a000000000000000000000000000000000000000000000000000000000815260040161043590612079565b60405180910390fd5b60055f9054906101000a900473ffffffffffffffffffffffffffffffffffffffff1673ffffffffffffffffffffffffffffffffffffffff1663a9059cbb5f836040518363ffffffff1660e01b815260040161049a929190612097565b6020604051808303815f875af11580156104b6573d5f803e3d5ffd5b505050506040513d601f19601f820116820180604052508101906104da91906120e8565b610519576040517f08c379a00000000000000000000000000000000000000000000000000000000081526004016105109061215d565b60405180910390fd5b8060035f8481526020019081526020015f205f3373ffffffffffffffffffffffffffffffffffffffff1673ffffffffffffffffffffffffffffffffffffffff1681526020019081526020015f205f82825461057491906121a8565b925050819055505050565b6002602052815f5260405f208181548110610598575f80fd5b905f5260205f20015f915091509054906101000a900473ffffffffffffffffffffffffffffffffffffffff1681565b6105cf611798565b60015f8381526020019081526020015f206040518060e00160405290815f820180546105fa90612208565b80601f016020809104026020016040519081016040528092919081815260200182805461062690612208565b80156106715780601f1061064857610100808354040283529160200191610671565b820191905f5260205f20905b81548152906001019060200180831161065457829003601f168201915b5050505050815260200160018201805461068a90612208565b80601f01602080910402602001604051908101604052809291908181526020018280546106b690612208565b80156107015780601f106106d857610100808354040283529160200191610701565b820191905f5260205f20905b8154815290600101906020018083116106e457829003601f168201915b5050505050815260200160028201548152602001600382015481526020016004820154815260200160058201548152602001600682015f9054906101000a900460ff1615151515815250509050919050565b60015f8381526020019081526020015f206006015f9054906101000a900460ff166107b3576040517f08c379a00000000000000000000000000000000000000000000000000000000081526004016107aa90611fa9565b60405180910390fd5b5f81116107f5576040517f08c379a00000000000000000000000000000000000000000000000000000000081526004016107ec90612011565b60405180910390fd5b8060015f8481526020019081526020015f2060050154101561084c576040517f08c379a000000000000000000000000000000000000000000000000000000000815260040161084390612282565b60405180910390fd5b612710811115610891576040517f08c379a0000000000000000000000000000000000000000000000000000000008152600401610888906122ea565b60405180910390fd5b8060055f9054906101000a900473ffffffffffffffffffffffffffffffffffffffff1673ffffffffffffffffffffffffffffffffffffffff166370a08231336040518263ffffffff1660e01b81526004016108ec9190611893565b602060405180830381865afa158015610907573d5f803e3d5ffd5b505050506040513d601f19601f8201168201806040525081019061092b919061231c565b101561096c576040517f08c379a000000000000000000000000000000000000000000000000000000000815260040161096390612391565b60405180910390fd5b60055f9054906101000a900473ffffffffffffffffffffffffffffffffffffffff1673ffffffffffffffffffffffffffffffffffffffff166323b872dd3330846040518463ffffffff1660e01b81526004016109ca939291906123af565b6020604051808303815f875af11580156109e6573d5f803e3d5ffd5b505050506040513d601f19601f82011682018060405250810190610a0a91906120e8565b610a49576040517f08c379a0000000000000000000000000000000000000000000000000000000008152600401610a409061215d565b60405180910390fd5b8060035f8481526020019081526020015f205f3373ffffffffffffffffffffffffffffffffffffffff1673ffffffffffffffffffffffffffffffffffffffff1681526020019081526020015f205f828254610aa491906123e4565b925050819055505f805b60025f8581526020019081526020015f2080549050811015610b63573373ffffffffffffffffffffffffffffffffffffffff1660025f8681526020019081526020015f208281548110610b0457610b03612417565b5b905f5260205f20015f9054906101000a900473ffffffffffffffffffffffffffffffffffffffff1673ffffffffffffffffffffffffffffffffffffffff1603610b505760019150610b63565b8080610b5b90612444565b915050610aae565b5080610bd95760025f8481526020019081526020015f2033908060018154018082558091505060019003905f5260205f20015f9091909190916101000a81548173ffffffffffffffffffffffffffffffffffffffff021916908373ffffffffffffffffffffffffffffffffffffffff1602179055505b7f768272733567844d2deeba1934fa6a35dbb79668bef8b889aa58f8b12f420882833384604051610c0c9392919061248b565b60405180910390a1505050565b6001602052805f5260405f205f91509050805f018054610c3890612208565b80601f0160208091040260200160405190810160405280929190818152602001828054610c6490612208565b8015610caf5780601f10610c8657610100808354040283529160200191610caf565b820191905f5260205f20905b815481529060010190602001808311610c9257829003601f168201915b505050505090806001018054610cc490612208565b80601f0160208091040260200160405190810160405280929190818152602001828054610cf090612208565b8015610d3b5780601f10610d1257610100808354040283529160200191610d3b565b820191905f5260205f20905b815481529060010190602001808311610d1e57829003601f168201915b505050505090806002015490806003015490806004015490806005015490806006015f9054906101000a900460ff16905087565b610d77611649565b610d805f6116d0565b565b606060025f8381526020019081526020015f20805480602002602001604051908101604052809291908181526020018280548015610e1257602002820191905f5260205f20905b815f9054906101000a900473ffffffffffffffffffffffffffffffffffffffff1673ffffffffffffffffffffffffffffffffffffffff1681526020019060010190808311610dc9575b50505050509050919050565b5f805f9054906101000a900473ffffffffffffffffffffffffffffffffffffffff16905090565b60045481565b60015f8481526020019081526020015f206006015f9054906101000a900460ff16610eab576040517f08c379a0000000000000000000000000000000000000000000000000000000008152600401610ea290611fa9565b60405180910390fd5b5f8211610eed576040517f08c379a0000000000000000000000000000000000000000000000000000000008152600401610ee490612011565b60405180910390fd5b5f60025f8581526020019081526020015f208054905011610f43576040517f08c379a0000000000000000000000000000000000000000000000000000000008152600401610f3a9061250a565b60405180910390fd5b8160035f8581526020019081526020015f205f3373ffffffffffffffffffffffffffffffffffffffff1673ffffffffffffffffffffffffffffffffffffffff1681526020019081526020015f20541015610fd2576040517f08c379a0000000000000000000000000000000000000000000000000000000008152600401610fc990612079565b60405180910390fd5b612710821115611017576040517f08c379a000000000000000000000000000000000000000000000000000000000815260040161100e906122ea565b60405180910390fd5b8160055f9054906101000a900473ffffffffffffffffffffffffffffffffffffffff1673ffffffffffffffffffffffffffffffffffffffff166370a08231336040518263ffffffff1660e01b81526004016110729190611893565b602060405180830381865afa15801561108d573d5f803e3d5ffd5b505050506040513d601f19601f820116820180604052508101906110b1919061231c565b10156110f2576040517f08c379a00000000000000000000000000000000000000000000000000000000081526004016110e990612598565b60405180910390fd5b60055f9054906101000a900473ffffffffffffffffffffffffffffffffffffffff1673ffffffffffffffffffffffffffffffffffffffff166323b872dd3383856040518463ffffffff1660e01b8152600401611150939291906123af565b6020604051808303815f875af115801561116c573d5f803e3d5ffd5b505050506040513d601f19601f8201168201806040525081019061119091906120e8565b6111cf576040517f08c379a00000000000000000000000000000000000000000000000000000000081526004016111c69061215d565b60405180910390fd5b8160035f8581526020019081526020015f205f3373ffffffffffffffffffffffffffffffffffffffff1673ffffffffffffffffffffffffffffffffffffffff1681526020019081526020015f205f82825461122a91906121a8565b925050819055508160035f8581526020019081526020015f205f8373ffffffffffffffffffffffffffffffffffffffff1673ffffffffffffffffffffffffffffffffffffffff1681526020019081526020015f205f82825461128c91906123e4565b925050819055505f805b60025f8681526020019081526020015f208054905081101561134b578273ffffffffffffffffffffffffffffffffffffffff1660025f8781526020019081526020015f2082815481106112ec576112eb612417565b5b905f5260205f20015f9054906101000a900473ffffffffffffffffffffffffffffffffffffffff1673ffffffffffffffffffffffffffffffffffffffff1603611338576001915061134b565b808061134390612444565b915050611296565b50806113c15760025f8581526020019081526020015f2082908060018154018082558091505060019003905f5260205f20015f9091909190916101000a81548173ffffffffffffffffffffffffffffffffffffffff021916908373ffffffffffffffffffffffffffffffffffffffff1602179055505b7f1f93e3a7383b42dfb7e2022d74956ef3996cfcba31197ea67bfdb36661ebdf25843384866040516113f694939291906125b6565b60405180910390a150505050565b60055f9054906101000a900473ffffffffffffffffffffffffffffffffffffffff1681565b611431611649565b60045f81548092919061144390612444565b91905055505f60045490506040518060e001604052808881526020018781526020018681526020018581526020018481526020018381526020016001151581525060015f8381526020019081526020015f205f820151815f0190816114a8919061278d565b5060208201518160010190816114be919061278d565b5060408201518160020155606082015181600301556080820151816004015560a0820151816005015560c0820151816006015f6101000a81548160ff0219169083151502179055509050507f94ce6ed2c0c74230060f5d9f901d0c49e06e5ee41040657933a44565d278b7b28188888860405161153e949392919061285c565b60405180910390a150505050505050565b6003602052815f5260405f20602052805f5260405f205f91509150505481565b611577611649565b5f73ffffffffffffffffffffffffffffffffffffffff168173ffffffffffffffffffffffffffffffffffffffff16036115e7575f6040517f1e4fbdf70000000000000000000000000000000000000000000000000000000081526004016115de9190611893565b60405180910390fd5b6115f0816116d0565b50565b5f60035f8481526020019081526020015f205f8373ffffffffffffffffffffffffffffffffffffffff1673ffffffffffffffffffffffffffffffffffffffff1681526020019081526020015f2054905092915050565b611651611791565b73ffffffffffffffffffffffffffffffffffffffff1661166f610e1e565b73ffffffffffffffffffffffffffffffffffffffff16146116ce57611692611791565b6040517f118cdaa70000000000000000000000000000000000000000000000000000000081526004016116c59190611893565b60405180910390fd5b565b5f805f9054906101000a900473ffffffffffffffffffffffffffffffffffffffff169050815f806101000a81548173ffffffffffffffffffffffffffffffffffffffff021916908373ffffffffffffffffffffffffffffffffffffffff1602179055508173ffffffffffffffffffffffffffffffffffffffff168173ffffffffffffffffffffffffffffffffffffffff167f8be0079c531659141344cd1fd0a4f28419497f9722a3daafe3b4186f6b6457e060405160405180910390a35050565b5f33905090565b6040518060e0016040528060608152602001606081526020015f81526020015f81526020015f81526020015f81526020015f151581525090565b5f604051905090565b5f80fd5b5f80fd5b5f819050919050565b6117f5816117e3565b81146117ff575f80fd5b50565b5f81359050611810816117ec565b92915050565b5f806040838503121561182c5761182b6117db565b5b5f61183985828601611802565b925050602061184a85828601611802565b9150509250929050565b5f73ffffffffffffffffffffffffffffffffffffffff82169050919050565b5f61187d82611854565b9050919050565b61188d81611873565b82525050565b5f6020820190506118a65f830184611884565b92915050565b5f602082840312156118c1576118c06117db565b5b5f6118ce84828501611802565b91505092915050565b5f81519050919050565b5f82825260208201905092915050565b5f5b8381101561190e5780820151818401526020810190506118f3565b5f8484015250505050565b5f601f19601f8301169050919050565b5f611933826118d7565b61193d81856118e1565b935061194d8185602086016118f1565b61195681611919565b840191505092915050565b61196a816117e3565b82525050565b5f8115159050919050565b61198481611970565b82525050565b5f60e083015f8301518482035f8601526119a48282611929565b915050602083015184820360208601526119be8282611929565b91505060408301516119d36040860182611961565b5060608301516119e66060860182611961565b5060808301516119f96080860182611961565b5060a0830151611a0c60a0860182611961565b5060c0830151611a1f60c086018261197b565b508091505092915050565b5f6020820190508181035f830152611a42818461198a565b905092915050565b5f82825260208201905092915050565b5f611a64826118d7565b611a6e8185611a4a565b9350611a7e8185602086016118f1565b611a8781611919565b840191505092915050565b611a9b816117e3565b82525050565b611aaa81611970565b82525050565b5f60e0820190508181035f830152611ac8818a611a5a565b90508181036020830152611adc8189611a5a565b9050611aeb6040830188611a92565b611af86060830187611a92565b611b056080830186611a92565b611b1260a0830185611a92565b611b1f60c0830184611aa1565b98975050505050505050565b5f81519050919050565b5f82825260208201905092915050565b5f819050602082019050919050565b611b5d81611873565b82525050565b5f611b6e8383611b54565b60208301905092915050565b5f602082019050919050565b5f611b9082611b2b565b611b9a8185611b35565b9350611ba583611b45565b805f5b83811015611bd5578151611bbc8882611b63565b9750611bc783611b7a565b925050600181019050611ba8565b5085935050505092915050565b5f6020820190508181035f830152611bfa8184611b86565b905092915050565b5f602082019050611c155f830184611a92565b92915050565b611c2481611873565b8114611c2e575f80fd5b50565b5f81359050611c3f81611c1b565b92915050565b5f805f60608486031215611c5c57611c5b6117db565b5b5f611c6986828701611802565b9350506020611c7a86828701611802565b9250506040611c8b86828701611c31565b9150509250925092565b5f819050919050565b5f611cb8611cb3611cae84611854565b611c95565b611854565b9050919050565b5f611cc982611c9e565b9050919050565b5f611cda82611cbf565b9050919050565b611cea81611cd0565b82525050565b5f602082019050611d035f830184611ce1565b92915050565b5f80fd5b5f80fd5b7f4e487b71000000000000000000000000000000000000000000000000000000005f52604160045260245ffd5b611d4782611919565b810181811067ffffffffffffffff82111715611d6657611d65611d11565b5b80604052505050565b5f611d786117d2565b9050611d848282611d3e565b919050565b5f67ffffffffffffffff821115611da357611da2611d11565b5b611dac82611919565b9050602081019050919050565b828183375f83830152505050565b5f611dd9611dd484611d89565b611d6f565b905082815260208101848484011115611df557611df4611d0d565b5b611e00848285611db9565b509392505050565b5f82601f830112611e1c57611e1b611d09565b5b8135611e2c848260208601611dc7565b91505092915050565b5f805f805f8060c08789031215611e4f57611e4e6117db565b5b5f87013567ffffffffffffffff811115611e6c57611e6b6117df565b5b611e7889828a01611e08565b965050602087013567ffffffffffffffff811115611e9957611e986117df565b5b611ea589828a01611e08565b9550506040611eb689828a01611802565b9450506060611ec789828a01611802565b9350506080611ed889828a01611802565b92505060a0611ee989828a01611802565b9150509295509295509295565b5f8060408385031215611f0c57611f0b6117db565b5b5f611f1985828601611802565b9250506020611f2a85828601611c31565b9150509250929050565b5f60208284031215611f4957611f486117db565b5b5f611f5684828501611c31565b91505092915050565b7f426f6e64206973206e6f742061637469766500000000000000000000000000005f82015250565b5f611f93601283611a4a565b9150611f9e82611f5f565b602082019050919050565b5f6020820190508181035f830152611fc081611f87565b9050919050565b7f416d6f756e74206d7573742062652067726561746572207468616e20300000005f82015250565b5f611ffb601d83611a4a565b915061200682611fc7565b602082019050919050565b5f6020820190508181035f83015261202881611fef565b9050919050565b7f496e73756666696369656e7420626f6e6420686f6c64696e67730000000000005f82015250565b5f612063601a83611a4a565b915061206e8261202f565b602082019050919050565b5f6020820190508181035f83015261209081612057565b9050919050565b5f6040820190506120aa5f830185611884565b6120b76020830184611a92565b9392505050565b6120c781611970565b81146120d1575f80fd5b50565b5f815190506120e2816120be565b92915050565b5f602082840312156120fd576120fc6117db565b5b5f61210a848285016120d4565b91505092915050565b7f546f6b656e207472616e73666572206661696c656400000000000000000000005f82015250565b5f612147601583611a4a565b915061215282612113565b602082019050919050565b5f6020820190508181035f8301526121748161213b565b9050919050565b7f4e487b71000000000000000000000000000000000000000000000000000000005f52601160045260245ffd5b5f6121b2826117e3565b91506121bd836117e3565b92508282039050818111156121d5576121d461217b565b5b92915050565b7f4e487b71000000000000000000000000000000000000000000000000000000005f52602260045260245ffd5b5f600282049050600182168061221f57607f821691505b602082108103612232576122316121db565b5b50919050565b7f496e73756666696369656e7420626f6e6420737570706c7900000000000000005f82015250565b5f61226c601883611a4a565b915061227782612238565b602082019050919050565b5f6020820190508181035f83015261229981612260565b9050919050565b7f416d6f756e742065786365656473206d6178696d756d20616c6c6f77656400005f82015250565b5f6122d4601e83611a4a565b91506122df826122a0565b602082019050919050565b5f6020820190508181035f830152612301816122c8565b9050919050565b5f81519050612316816117ec565b92915050565b5f60208284031215612331576123306117db565b5b5f61233e84828501612308565b91505092915050565b7f496e73756666696369656e7420746f6b656e2062616c616e63650000000000005f82015250565b5f61237b601a83611a4a565b915061238682612347565b602082019050919050565b5f6020820190508181035f8301526123a88161236f565b9050919050565b5f6060820190506123c25f830186611884565b6123cf6020830185611884565b6123dc6040830184611a92565b949350505050565b5f6123ee826117e3565b91506123f9836117e3565b92508282019050808211156124115761241061217b565b5b92915050565b7f4e487b71000000000000000000000000000000000000000000000000000000005f52603260045260245ffd5b5f61244e826117e3565b91507fffffffffffffffffffffffffffffffffffffffffffffffffffffffffffffffff82036124805761247f61217b565b5b600182019050919050565b5f60608201905061249e5f830186611a92565b6124ab6020830185611884565b6124b86040830184611a92565b949350505050565b7f4e6f20686f6c6465727320666f72207468697320626f6e6400000000000000005f82015250565b5f6124f4601883611a4a565b91506124ff826124c0565b602082019050919050565b5f6020820190508181035f830152612521816124e8565b9050919050565b7f496e73756666696369656e7420746f6b656e2062616c616e636520746f2070615f8201527f7920666565730000000000000000000000000000000000000000000000000000602082015250565b5f612582602683611a4a565b915061258d82612528565b604082019050919050565b5f6020820190508181035f8301526125af81612576565b9050919050565b5f6080820190506125c95f830187611a92565b6125d66020830186611884565b6125e36040830185611884565b6125f06060830184611a92565b95945050505050565b5f819050815f5260205f209050919050565b5f6020601f8301049050919050565b5f82821b905092915050565b5f600883026126557fffffffffffffffffffffffffffffffffffffffffffffffffffffffffffffffff8261261a565b61265f868361261a565b95508019841693508086168417925050509392505050565b5f61269161268c612687846117e3565b611c95565b6117e3565b9050919050565b5f819050919050565b6126aa83612677565b6126be6126b682612698565b848454612626565b825550505050565b5f90565b6126d26126c6565b6126dd8184846126a1565b505050565b5b81811015612700576126f55f826126ca565b6001810190506126e3565b5050565b601f82111561274557612716816125f9565b61271f8461260b565b8101602085101561272e578190505b61274261273a8561260b565b8301826126e2565b50505b505050565b5f82821c905092915050565b5f6127655f198460080261274a565b1980831691505092915050565b5f61277d8383612756565b9150826002028217905092915050565b612796826118d7565b67ffffffffffffffff8111156127af576127ae611d11565b5b6127b98254612208565b6127c4828285612704565b5f60209050601f8311600181146127f5575f84156127e3578287015190505b6127ed8582612772565b865550612854565b601f198416612803866125f9565b5f5b8281101561282a57848901518255600182019150602085019450602081019050612805565b868310156128475784890151612843601f891682612756565b8355505b6001600288020188555050505b505050505050565b5f60808201905061286f5f830187611a92565b81810360208301526128818186611a5a565b905081810360408301526128958185611a5a565b90506128a46060830184611a92565b9594505050505056fea264697066735822122030783b568179b497ea7bb4c579c8c1e30264cbc138854bf1f1e206b6b6d2420064736f6c63430008150033",
  "immutableReferences": {},
  "source": "// SPDX-License-Identifier: MIT\r\npragma solidity ^0.8.21;\r\n\r\nimport \"@openzeppelin/contracts/token/ERC20/IERC20.sol\";\r\nimport \"@openzeppelin/contracts/access/Ownable.sol\";\r\n\r\ncontract BondTrading is Ownable {\r\n    struct Bond {\r\n        string name;\r\n        string issuer;\r\n        uint256 faceValue;\r\n        uint256 maturityDate;\r\n        uint256 interestRate;\r\n        uint256 totalSupply;\r\n        bool isActive;\r\n    }\r\n\r\n    mapping(uint256 => Bond) public bonds;\r\n    mapping(uint256 => address[]) public bondHolders;\r\n    mapping(uint256 => mapping(address => uint256)) public bondBalances;\r\n    uint256 public bondCount;\r\n\r\n    // Address of the BondToken contract (used for representing bond ownership)\r\n    IERC20 public bondToken;\r\n\r\n    // Events\r\n    event BondIssued(uint256 bondId, string name, string issuer, uint256 faceValue);\r\n    event BondPurchased(uint256 bondId, address buyer, uint256 amount);\r\n    event BondSold(uint256 bondId, address seller, address buyer, uint256 amount);\r\n\r\n    constructor(address _bondTokenAddress, address initialOwner) Ownable(initialOwner) {\r\n        bondToken = IERC20(_bondTokenAddress);\r\n    }\r\n\r\n    function issueBond(\r\n        string memory _name,\r\n        string memory _issuer,\r\n        uint256 _faceValue,\r\n        uint256 _maturityDate,\r\n        uint256 _interestRate,\r\n        uint256 _supply\r\n    ) public onlyOwner {\r\n        bondCount++;\r\n        uint256 bondId = bondCount;\r\n        \r\n        bonds[bondId] = Bond({\r\n            name: _name,\r\n            issuer: _issuer,\r\n            faceValue: _faceValue,\r\n            maturityDate: _maturityDate,\r\n            interestRate: _interestRate,\r\n            totalSupply: _supply,\r\n            isActive: true\r\n        });\r\n        \r\n        emit BondIssued(bondId, _name, _issuer, _faceValue);\r\n    }\r\n\r\n    function purchaseBond(uint256 _bondId, uint256 _amount) public {\r\n        require(bonds[_bondId].isActive, \"Bond is not active\");\r\n        require(_amount > 0, \"Amount must be greater than 0\");\r\n        require(bonds[_bondId].totalSupply >= _amount, \"Insufficient bond supply\");\r\n        require(_amount <= 10000, \"Amount exceeds maximum allowed\"); // Prevent overflow issues\r\n        require(bondToken.balanceOf(msg.sender) >= _amount, \"Insufficient token balance\");\r\n        \r\n        // Transfer tokens from user to this contract (simulate payment)\r\n        require(bondToken.transferFrom(msg.sender, address(this), _amount), \"Token transfer failed\");\r\n        \r\n        // Update bond balances\r\n        bondBalances[_bondId][msg.sender] += _amount;\r\n        \r\n        // Add to bond holders list if not already there\r\n        bool alreadyHolder = false;\r\n        for (uint256 i = 0; i < bondHolders[_bondId].length; i++) {\r\n            if (bondHolders[_bondId][i] == msg.sender) {\r\n                alreadyHolder = true;\r\n                break;\r\n            }\r\n        }\r\n        if (!alreadyHolder) {\r\n            bondHolders[_bondId].push(msg.sender);\r\n        }\r\n        \r\n        emit BondPurchased(_bondId, msg.sender, _amount);\r\n    }\r\n\r\n    function sellBond(uint256 _bondId, uint256 _amount, address _buyer) public {\r\n        require(bonds[_bondId].isActive, \"Bond is not active\");\r\n        require(_amount > 0, \"Amount must be greater than 0\");\r\n        require(bondHolders[_bondId].length > 0, \"No holders for this bond\");\r\n        require(bondBalances[_bondId][msg.sender] >= _amount, \"Insufficient bond holdings\");\r\n        require(_amount <= 10000, \"Amount exceeds maximum allowed\"); // Prevent overflow issues\r\n        require(bondToken.balanceOf(msg.sender) >= _amount, \"Insufficient token balance to pay fees\");\r\n        \r\n        // Transfer tokens from seller to buyer (the token amount represents bond ownership)\r\n        require(bondToken.transferFrom(msg.sender, _buyer, _amount), \"Token transfer failed\");\r\n        \r\n        // Update balances\r\n        bondBalances[_bondId][msg.sender] -= _amount;\r\n        bondBalances[_bondId][_buyer] += _amount;\r\n        \r\n        // Add buyer to bond holders list if not already there\r\n        bool holderExists = false;\r\n        for (uint256 i = 0; i < bondHolders[_bondId].length; i++) {\r\n            if (bondHolders[_bondId][i] == _buyer) {\r\n                holderExists = true;\r\n                break;\r\n            }\r\n        }\r\n        if (!holderExists) {\r\n            bondHolders[_bondId].push(_buyer);\r\n        }\r\n        \r\n        emit BondSold(_bondId, msg.sender, _buyer, _amount);\r\n    }\r\n\r\n    // Helper function to get the amount of bonds a holder has\r\n    function getBondHolderAmount(uint256 _bondId, address _holder) public view returns (uint256) {\r\n        return bondBalances[_bondId][_holder];\r\n    }\r\n\r\n    function redeemBond(uint256 _bondId, uint256 _amount) public {\r\n        require(bonds[_bondId].isActive, \"Bond is not active\");\r\n        require(_amount > 0, \"Amount must be greater than 0\");\r\n        require(bondBalances[_bondId][msg.sender] >= _amount, \"Insufficient bond holdings\");\r\n        \r\n        // Burn the bond tokens by transferring them to the zero address\r\n        require(bondToken.transfer(address(0), _amount), \"Token transfer failed\");\r\n        \r\n        // Update balances\r\n        bondBalances[_bondId][msg.sender] -= _amount;\r\n        \r\n        // In a real implementation, this would return face value + interest\r\n        // For MVP, we'll just burn the tokens\r\n    }\r\n\r\n    function getBondInfo(uint256 _bondId) public view returns (Bond memory) {\r\n        return bonds[_bondId];\r\n    }\r\n\r\n    function getBondHolders(uint256 _bondId) public view returns (address[] memory) {\r\n        return bondHolders[_bondId];\r\n    }\r\n}\r\n",
  "sourcePath": "C:\\Users\\Raphael Lima\\Documents\\repos\\BondsTradingProject\\contracts\\BondTrading.sol",
  "compiler": {
    "name": "solc",
    "version": "0.8.21+commit.d9974bed.Emscripten.clang"
  },
  "schemaVersion": "3.4.16",
  "updatedAt": "2025-12-12T03:55:21.523Z",
  "networkType": "ethereum",
  "devdoc": {
    "errors": {
      "OwnableInvalidOwner(address)": [
        {
          "details": "The owner is not a valid owner account. (eg. `address(0)`)"
        }
      ],
      "OwnableUnauthorizedAccount(address)": [
        {
          "details": "The caller account is not authorized to perform an operation."
        }
      ]
    },
    "kind": "dev",
    "methods": {
      "owner()": {
        "details": "Returns the address of the current owner."
      },
      "renounceOwnership()": {
        "details": "Leaves the contract without owner. It will not be possible to call `onlyOwner` functions. Can only be called by the current owner. NOTE: Renouncing ownership will leave the contract without an owner, thereby disabling any functionality that is only available to the owner."
      },
      "transferOwnership(address)": {
        "details": "Transfers ownership of the contract to a new account (`newOwner`). Can only be called by the current owner."
      }
    },
    "version": 1
  },
  "userdoc": {
    "kind": "user",
    "methods": {},
    "version": 1
  }
}