{
  "contractName": "BondToken",
  "abi": [
    {
      "inputs": [
        {
          "internalType": "string",
          "name": "_name",
          "type": "string"
        },
        {
          "internalType": "string",
          "name": "_symbol",
          "type": "string"
        },
        {
          "internalType": "address",
          "name": "initialOwner",
          "type": "address"
        }
      ],
      "stateMutability": "nonpayable",
      "type": "constructor"
    },
    {
      "inputs": [
        {
          "internalType": "address",
          "name": "spender",
          "type": "address"
        },
        {
          "internalType": "uint256",
          "name": "allowance",
          "type": "uint256"
        },
        {
          "internalType": "uint256",
          "name": "needed",
          "type": "uint256"
        }
      ],
      "name": "ERC20InsufficientAllowance",
      "type": "error"
    },
    {
      "inputs": [
        {
          "internalType": "address",
          "name": "sender",
          "type": "address"
        },
        {
          "internalType": "uint256",
          "name": "balance",
          "type": "uint256"
        },
        {
          "internalType": "uint256",
          "name": "needed",
          "type": "uint256"
        }
      ],
      "name": "ERC20InsufficientBalance",
      "type": "error"
    },
    {
      "inputs": [
        {
          "internalType": "address",
          "name": "approver",
          "type": "address"
        }
      ],
      "name": "ERC20InvalidApprover",
      "type": "error"
    },
    {
      "inputs": [
        {
          "internalType": "address",
          "name": "receiver",
          "type": "address"
        }
      ],
      "name": "ERC20InvalidReceiver",
      "type": "error"
    },
    {
      "inputs": [
        {
          "internalType": "address",
          "name": "sender",
          "type": "address"
        }
      ],
      "name": "ERC20InvalidSender",
      "type": "error"
    },
    {
      "inputs": [
        {
          "internalType": "address",
          "name": "spender",
          "type": "address"
        }
      ],
      "name": "ERC20InvalidSpender",
      "type": "error"
    },
    {
      "inputs": [
        {
          "internalType": "address",
          "name": "owner",
          "type": "address"
        }
      ],
      "name": "OwnableInvalidOwner",
      "type": "error"
    },
    {
      "inputs": [
        {
          "internalType": "address",
          "name": "account",
          "type": "address"
        }
      ],
      "name": "OwnableUnauthorizedAccount",
      "type": "error"
    },
    {
      "anonymous": false,
      "inputs": [
        {
          "indexed": true,
          "internalType": "address",
          "name": "owner",
          "type": "address"
        },
        {
          "indexed": true,
          "internalType": "address",
          "name": "spender",
          "type": "address"
        },
        {
          "indexed": false,
          "internalType": "uint256",
          "name": "value",
          "type": "uint256"
        }
      ],
      "name": "Approval",
      "type": "event"
    },
    {
      "anonymous": false,
      "inputs": [
        {
          "indexed": true,
          "internalType": "address",
          "name": "previousOwner",
          "type": "address"
        },
        {
          "indexed": true,
          "internalType": "address",
          "name": "newOwner",
          "type": "address"
        }
      ],
      "name": "OwnershipTransferred",
      "type": "event"
    },
    {
      "anonymous": false,
      "inputs": [
        {
          "indexed": true,
          "internalType": "address",
          "name": "from",
          "type": "address"
        },
        {
          "indexed": true,
          "internalType": "address",
          "name": "to",
          "type": "address"
        },
        {
          "indexed": false,
          "internalType": "uint256",
          "name": "value",
          "type": "uint256"
        }
      ],
      "name": "Transfer",
      "type": "event"
    },
    {
      "inputs": [],
      "name": "INITIAL_SUPPLY",
      "outputs": [
        {
          "internalType": "uint256",
          "name": "",
          "type": "uint256"
        }
      ],
      "stateMutability": "view",
      "type": "function",
      "constant": true
    },
    {
      "inputs": [
        {
          "internalType": "address",
          "name": "owner",
          "type": "address"
        },
        {
          "internalType": "address",
          "name": "spender",
          "type": "address"
        }
      ],
      "name": "allowance",
      "outputs": [
        {
          "internalType": "uint256",
          "name": "",
          "type": "uint256"
        }
      ],
      "stateMutability": "view",
      "type": "function",
      "constant": true
    },
    {
      "inputs": [
        {
          "internalType": "address",
          "name": "spender",
          "type": "address"
        },
        {
          "internalType": "uint256",
          "name": "value",
          "type": "uint256"
        }
      ],
      "name": "approve",
      "outputs": [
        {
          "internalType": "bool",
          "name": "",
          "type": "bool"
        }
      ],
      "stateMutability": "nonpayable",
      "type": "function"
    },
    {
      "inputs": [
        {
          "internalType": "address",
          "name": "account",
          "type": "address"
        }
      ],
      "name": "balanceOf",
      "outputs": [
        {
          "internalType": "uint256",
          "name": "",
          "type": "uint256"
        }
      ],
      "stateMutability": "view",
      "type": "function",
      "constant": true
    },
    {
      "inputs": [],
      "name": "decimals",
      "outputs": [
        {
          "internalType": "uint8",
          "name": "",
          "type": "uint8"
        }
      ],
      "stateMutability": "view",
      "type": "function",
      "constant": true
    },
    {
      "inputs": [],
      "name": "name",
      "outputs": [
        {
          "internalType": "string",
          "name": "",
          "type": "string"
        }
      ],
      "stateMutability": "view",
      "type": "function",
      "constant": true
    },
    {
      "inputs": [],
      "name": "owner",
      "outputs": [
        {
          "internalType": "address",
          "name": "",
          "type": "address"
        }
      ],
      "stateMutability": "view",
      "type": "function",
      "constant": true
    },
    {
      "inputs": [],
      "name": "renounceOwnership",
      "outputs": [],
      "stateMutability": "nonpayable",
      "type": "function"
    },
    {
      "inputs": [],
      "name": "symbol",
      "outputs": [
        {
          "internalType": "string",
          "name": "",
          "type": "string"
        }
      ],
      "stateMutability": "view",
      "type": "function",
      "constant": true
    },
    {
      "inputs": [],
      "name": "totalSupply",
      "outputs": [
        {
          "internalType": "uint256",
          "name": "",
          "type": "uint256"
        }
      ],
      "stateMutability": "view",
      "type": "function",
      "constant": true
    },
    {
      "inputs": [
        {
          "internalType": "address",
          "name": "to",
          "type": "address"
        },
        {
          "internalType": "uint256",
          "name": "value",
          "type": "uint256"
        }
      ],
      "name": "transfer",
      "outputs": [
        {
          "internalType": "bool",
          "name": "",
          "type": "bool"
        }
      ],
      "stateMutability": "nonpayable",
      "type": "function"
    },
    {
      "inputs": [
        {
          "internalType": "address",
          "name": "from",
          "type": "address"
        },
        {
          "internalType": "address",
          "name": "to",
          "type": "address"
        },
        {
          "internalType": "uint256",
          "name": "value",
          "type": "uint256"
        }
      ],
      "name": "transferFrom",
      "outputs": [
        {
          "internalType": "bool",
          "name": "",
          "type": "bool"
        }
      ],
      "stateMutability": "nonpayable",
      "type": "function"
    },
    {
      "inputs": [
        {
          "internalType": "address",
          "name": "newOwner",
          "type": "address"
        }
      ],
      "name": "transferOwnership",
      "outputs": [],
      "stateMutability": "nonpayable",
      "type": "function"
    },
    {
      "inputs": [
        {
          "internalType": "address",
          "name": "to",
          "type": "address"
        },
        {
          "internalType": "uint256",
          "name": "amount",
          "type": "uint256"
        }
      ],
      "name": "mint",
      "outputs": [],
      "stateMutability": "nonpayable",
      "type": "function"
    }
  ],
  "bytecode": "0x608060405234801562000010575f80fd5b5060405162001c9738038062001c97833981810160405281019062000036919062000660565b80838381600390816200004a91906200092e565b5080600490816200005c91906200092e565b5050505f73ffffffffffffffffffffffffffffffffffffffff168173ffffffffffffffffffffffffffffffffffffffff1603620000d2575f6040517f1e4fbdf7000000000000000000000000000000000000000000000000000000008152600401620000c9919062000a23565b60405180910390fd5b620000e3816200010960201b60201c565b50620001003369d3c21bcecceda1000000620001cc60201b60201c565b50505062000b0c565b5f60055f9054906101000a900473ffffffffffffffffffffffffffffffffffffffff1690508160055f6101000a81548173ffffffffffffffffffffffffffffffffffffffff021916908373ffffffffffffffffffffffffffffffffffffffff1602179055508173ffffffffffffffffffffffffffffffffffffffff168173ffffffffffffffffffffffffffffffffffffffff167f8be0079c531659141344cd1fd0a4f28419497f9722a3daafe3b4186f6b6457e060405160405180910390a35050565b5f73ffffffffffffffffffffffffffffffffffffffff168273ffffffffffffffffffffffffffffffffffffffff16036200023f575f6040517fec442f0500000000000000000000000000000000000000000000000000000000815260040162000236919062000a23565b60405180910390fd5b620002525f83836200025660201b60201c565b5050565b5f73ffffffffffffffffffffffffffffffffffffffff168373ffffffffffffffffffffffffffffffffffffffff1603620002aa578060025f8282546200029d919062000a6b565b925050819055506200037b565b5f805f8573ffffffffffffffffffffffffffffffffffffffff1673ffffffffffffffffffffffffffffffffffffffff1681526020019081526020015f205490508181101562000336578381836040517fe450d38c0000000000000000000000000000000000000000000000000000000081526004016200032d9392919062000ab6565b60405180910390fd5b8181035f808673ffffffffffffffffffffffffffffffffffffffff1673ffffffffffffffffffffffffffffffffffffffff1681526020019081526020015f2081905550505b5f73ffffffffffffffffffffffffffffffffffffffff168273ffffffffffffffffffffffffffffffffffffffff1603620003c4578060025f82825403925050819055506200040e565b805f808473ffffffffffffffffffffffffffffffffffffffff1673ffffffffffffffffffffffffffffffffffffffff1681526020019081526020015f205f82825401925050819055505b8173ffffffffffffffffffffffffffffffffffffffff168373ffffffffffffffffffffffffffffffffffffffff167fddf252ad1be2c89b69c2b068fc378daa952ba7f163c4a11628f55a4df523b3ef836040516200046d919062000af1565b60405180910390a3505050565b5f604051905090565b5f80fd5b5f80fd5b5f80fd5b5f80fd5b5f601f19601f8301169050919050565b7f4e487b71000000000000000000000000000000000000000000000000000000005f52604160045260245ffd5b620004db8262000493565b810181811067ffffffffffffffff82111715620004fd57620004fc620004a3565b5b80604052505050565b5f620005116200047a565b90506200051f8282620004d0565b919050565b5f67ffffffffffffffff821115620005415762000540620004a3565b5b6200054c8262000493565b9050602081019050919050565b5f5b83811015620005785780820151818401526020810190506200055b565b5f8484015250505050565b5f62000599620005938462000524565b62000506565b905082815260208101848484011115620005b857620005b76200048f565b5b620005c584828562000559565b509392505050565b5f82601f830112620005e457620005e36200048b565b5b8151620005f684826020860162000583565b91505092915050565b5f73ffffffffffffffffffffffffffffffffffffffff82169050919050565b5f6200062a82620005ff565b9050919050565b6200063c816200061e565b811462000647575f80fd5b50565b5f815190506200065a8162000631565b92915050565b5f805f606084860312156200067a576200067962000483565b5b5f84015167ffffffffffffffff8111156200069a576200069962000487565b5b620006a886828701620005cd565b935050602084015167ffffffffffffffff811115620006cc57620006cb62000487565b5b620006da86828701620005cd565b9250506040620006ed868287016200064a565b9150509250925092565b5f81519050919050565b7f4e487b71000000000000000000000000000000000000000000000000000000005f52602260045260245ffd5b5f60028204905060018216806200074657607f821691505b6020821081036200075c576200075b62000701565b5b50919050565b5f819050815f5260205f209050919050565b5f6020601f8301049050919050565b5f82821b905092915050565b5f60088302620007c07fffffffffffffffffffffffffffffffffffffffffffffffffffffffffffffffff8262000783565b620007cc868362000783565b95508019841693508086168417925050509392505050565b5f819050919050565b5f819050919050565b5f62000816620008106200080a84620007e4565b620007ed565b620007e4565b9050919050565b5f819050919050565b6200083183620007f6565b6200084962000840826200081d565b8484546200078f565b825550505050565b5f90565b6200085f62000851565b6200086c81848462000826565b505050565b5b818110156200089357620008875f8262000855565b60018101905062000872565b5050565b601f821115620008e257620008ac8162000762565b620008b78462000774565b81016020851015620008c7578190505b620008df620008d68562000774565b83018262000871565b50505b505050565b5f82821c905092915050565b5f620009045f1984600802620008e7565b1980831691505092915050565b5f6200091e8383620008f3565b9150826002028217905092915050565b6200093982620006f7565b67ffffffffffffffff811115620009555762000954620004a3565b5b6200096182546200072e565b6200096e82828562000897565b5f60209050601f831160018114620009a4575f84156200098f578287015190505b6200099b858262000911565b86555062000a0a565b601f198416620009b48662000762565b5f5b82811015620009dd57848901518255600182019150602085019450602081019050620009b6565b86831015620009fd5784890151620009f9601f891682620008f3565b8355505b6001600288020188555050505b505050505050565b62000a1d816200061e565b82525050565b5f60208201905062000a385f83018462000a12565b92915050565b7f4e487b71000000000000000000000000000000000000000000000000000000005f52601160045260245ffd5b5f62000a7782620007e4565b915062000a8483620007e4565b925082820190508082111562000a9f5762000a9e62000a3e565b5b92915050565b62000ab081620007e4565b82525050565b5f60608201905062000acb5f83018662000a12565b62000ada602083018562000aa5565b62000ae9604083018462000aa5565b949350505050565b5f60208201905062000b065f83018462000aa5565b92915050565b61117d8062000b1a5f395ff3fe608060405234801561000f575f80fd5b50600436106100e8575f3560e01c806370a082311161008a57806395d89b411161006457806395d89b4114610238578063a9059cbb14610256578063dd62ed3e14610286578063f2fde38b146102b6576100e8565b806370a08231146101e0578063715018a6146102105780638da5cb5b1461021a576100e8565b806323b872dd116100c657806323b872dd146101585780632ff2e9dc14610188578063313ce567146101a657806340c10f19146101c4576100e8565b806306fdde03146100ec578063095ea7b31461010a57806318160ddd1461013a575b5f80fd5b6100f46102d2565b6040516101019190610df6565b60405180910390f35b610124600480360381019061011f9190610ea7565b610362565b6040516101319190610eff565b60405180910390f35b610142610384565b60405161014f9190610f27565b60405180910390f35b610172600480360381019061016d9190610f40565b61038d565b60405161017f9190610eff565b60405180910390f35b6101906103bb565b60405161019d9190610f27565b60405180910390f35b6101ae6103c9565b6040516101bb9190610fab565b60405180910390f35b6101de60048036038101906101d99190610ea7565b6103d1565b005b6101fa60048036038101906101f59190610fc4565b6103e7565b6040516102079190610f27565b60405180910390f35b61021861042c565b005b61022261043f565b60405161022f9190610ffe565b60405180910390f35b610240610467565b60405161024d9190610df6565b60405180910390f35b610270600480360381019061026b9190610ea7565b6104f7565b60405161027d9190610eff565b60405180910390f35b6102a0600480360381019061029b9190611017565b610519565b6040516102ad9190610f27565b60405180910390f35b6102d060048036038101906102cb9190610fc4565b61059b565b005b6060600380546102e190611082565b80601f016020809104026020016040519081016040528092919081815260200182805461030d90611082565b80156103585780601f1061032f57610100808354040283529160200191610358565b820191905f5260205f20905b81548152906001019060200180831161033b57829003601f168201915b5050505050905090565b5f8061036c61061f565b9050610379818585610626565b600191505092915050565b5f600254905090565b5f8061039761061f565b90506103a4858285610638565b6103af8585856106cb565b60019150509392505050565b69d3c21bcecceda100000081565b5f6012905090565b6103d96107bb565b6103e38282610842565b5050565b5f805f8373ffffffffffffffffffffffffffffffffffffffff1673ffffffffffffffffffffffffffffffffffffffff1681526020019081526020015f20549050919050565b6104346107bb565b61043d5f6108c1565b565b5f60055f9054906101000a900473ffffffffffffffffffffffffffffffffffffffff16905090565b60606004805461047690611082565b80601f01602080910402602001604051908101604052809291908181526020018280546104a290611082565b80156104ed5780601f106104c4576101008083540402835291602001916104ed565b820191905f5260205f20905b8154815290600101906020018083116104d057829003601f168201915b5050505050905090565b5f8061050161061f565b905061050e8185856106cb565b600191505092915050565b5f60015f8473ffffffffffffffffffffffffffffffffffffffff1673ffffffffffffffffffffffffffffffffffffffff1681526020019081526020015f205f8373ffffffffffffffffffffffffffffffffffffffff1673ffffffffffffffffffffffffffffffffffffffff1681526020019081526020015f2054905092915050565b6105a36107bb565b5f73ffffffffffffffffffffffffffffffffffffffff168173ffffffffffffffffffffffffffffffffffffffff1603610613575f6040517f1e4fbdf700000000000000000000000000000000000000000000000000000000815260040161060a9190610ffe565b60405180910390fd5b61061c816108c1565b50565b5f33905090565b6106338383836001610984565b505050565b5f6106438484610519565b90507fffffffffffffffffffffffffffffffffffffffffffffffffffffffffffffffff8110156106c557818110156106b6578281836040517ffb8f41b20000000000000000000000000000000000000000000000000000000081526004016106ad939291906110b2565b60405180910390fd5b6106c484848484035f610984565b5b50505050565b5f73ffffffffffffffffffffffffffffffffffffffff168373ffffffffffffffffffffffffffffffffffffffff160361073b575f6040517f96c6fd1e0000000000000000000000000000000000000000000000000000000081526004016107329190610ffe565b60405180910390fd5b5f73ffffffffffffffffffffffffffffffffffffffff168273ffffffffffffffffffffffffffffffffffffffff16036107ab575f6040517fec442f050000000000000000000000000000000000000000000000000000000081526004016107a29190610ffe565b60405180910390fd5b6107b6838383610b53565b505050565b6107c361061f565b73ffffffffffffffffffffffffffffffffffffffff166107e161043f565b73ffffffffffffffffffffffffffffffffffffffff16146108405761080461061f565b6040517f118cdaa70000000000000000000000000000000000000000000000000000000081526004016108379190610ffe565b60405180910390fd5b565b5f73ffffffffffffffffffffffffffffffffffffffff168273ffffffffffffffffffffffffffffffffffffffff16036108b2575f6040517fec442f050000000000000000000000000000000000000000000000000000000081526004016108a99190610ffe565b60405180910390fd5b6108bd5f8383610b53565b5050565b5f60055f9054906101000a900473ffffffffffffffffffffffffffffffffffffffff1690508160055f6101000a81548173ffffffffffffffffffffffffffffffffffffffff021916908373ffffffffffffffffffffffffffffffffffffffff1602179055508173ffffffffffffffffffffffffffffffffffffffff168173ffffffffffffffffffffffffffffffffffffffff167f8be0079c531659141344cd1fd0a4f28419497f9722a3daafe3b4186f6b6457e060405160405180910390a35050565b5f73ffffffffffffffffffffffffffffffffffffffff168473ffffffffffffffffffffffffffffffffffffffff16036109f4575f6040517fe602df050000000000000000000000000000000000000000000000000000000081526004016109eb9190610ffe565b60405180910390fd5b5f73ffffffffffffffffffffffffffffffffffffffff168373ffffffffffffffffffffffffffffffffffffffff1603610a64575f6040517f94280d62000000000000000000000000000000000000000000000000000000008152600401610a5b9190610ffe565b60405180910390fd5b8160015f8673ffffffffffffffffffffffffffffffffffffffff1673ffffffffffffffffffffffffffffffffffffffff1681526020019081526020015f205f8573ffffffffffffffffffffffffffffffffffffffff1673ffffffffffffffffffffffffffffffffffffffff1681526020019081526020015f20819055508015610b4d578273ffffffffffffffffffffffffffffffffffffffff168473ffffffffffffffffffffffffffffffffffffffff167f8c5be1e5ebec7d5bd14f71427d1e84f3dd0314c0f7b2291e5b200ac8c7c3b92584604051610b449190610f27565b60405180910390a35b50505050565b5f73ffffffffffffffffffffffffffffffffffffffff168373ffffffffffffffffffffffffffffffffffffffff1603610ba3578060025f828254610b979190611114565b92505081905550610c71565b5f805f8573ffffffffffffffffffffffffffffffffffffffff1673ffffffffffffffffffffffffffffffffffffffff1681526020019081526020015f2054905081811015610c2c578381836040517fe450d38c000000000000000000000000000000000000000000000000000000008152600401610c23939291906110b2565b60405180910390fd5b8181035f808673ffffffffffffffffffffffffffffffffffffffff1673ffffffffffffffffffffffffffffffffffffffff1681526020019081526020015f2081905550505b5f73ffffffffffffffffffffffffffffffffffffffff168273ffffffffffffffffffffffffffffffffffffffff1603610cb8578060025f8282540392505081905550610d02565b805f808473ffffffffffffffffffffffffffffffffffffffff1673ffffffffffffffffffffffffffffffffffffffff1681526020019081526020015f205f82825401925050819055505b8173ffffffffffffffffffffffffffffffffffffffff168373ffffffffffffffffffffffffffffffffffffffff167fddf252ad1be2c89b69c2b068fc378daa952ba7f163c4a11628f55a4df523b3ef83604051610d5f9190610f27565b60405180910390a3505050565b5f81519050919050565b5f82825260208201905092915050565b5f5b83811015610da3578082015181840152602081019050610d88565b5f8484015250505050565b5f601f19601f8301169050919050565b5f610dc882610d6c565b610dd28185610d76565b9350610de2818560208601610d86565b610deb81610dae565b840191505092915050565b5f6020820190508181035f830152610e0e8184610dbe565b905092915050565b5f80fd5b5f73ffffffffffffffffffffffffffffffffffffffff82169050919050565b5f610e4382610e1a565b9050919050565b610e5381610e39565b8114610e5d575f80fd5b50565b5f81359050610e6e81610e4a565b92915050565b5f819050919050565b610e8681610e74565b8114610e90575f80fd5b50565b5f81359050610ea181610e7d565b92915050565b5f8060408385031215610ebd57610ebc610e16565b5b5f610eca85828601610e60565b9250506020610edb85828601610e93565b9150509250929050565b5f8115159050919050565b610ef981610ee5565b82525050565b5f602082019050610f125f830184610ef0565b92915050565b610f2181610e74565b82525050565b5f602082019050610f3a5f830184610f18565b92915050565b5f805f60608486031215610f5757610f56610e16565b5b5f610f6486828701610e60565b9350506020610f7586828701610e60565b9250506040610f8686828701610e93565b9150509250925092565b5f60ff82169050919050565b610fa581610f90565b82525050565b5f602082019050610fbe5f830184610f9c565b92915050565b5f60208284031215610fd957610fd8610e16565b5b5f610fe684828501610e60565b91505092915050565b610ff881610e39565b82525050565b5f6020820190506110115f830184610fef565b92915050565b5f806040838503121561102d5761102c610e16565b5b5f61103a85828601610e60565b925050602061104b85828601610e60565b9150509250929050565b7f4e487b71000000000000000000000000000000000000000000000000000000005f52602260045260245ffd5b5f600282049050600182168061109957607f821691505b6020821081036110ac576110ab611055565b5b50919050565b5f6060820190506110c55f830186610fef565b6110d26020830185610f18565b6110df6040830184610f18565b949350505050565b7f4e487b71000000000000000000000000000000000000000000000000000000005f52601160045260245ffd5b5f61111e82610e74565b915061112983610e74565b9250828201905080821115611141576111406110e7565b5b9291505056fea26469706673582212205ae18c13f27410ac9e52805f0b0a4268b0e9790a3db7990489633194ce75bf9564736f6c63430008150033",
  "immutableReferences": {},
  "source": "// SPDX-License-Identifier: MIT\r\npragma solidity ^0.8.21;\r\n\r\nimport \"@openzeppelin/contracts/token/ERC20/ERC20.sol\";\r\nimport \"@openzeppelin/contracts/access/Ownable.sol\";\r\n\r\ncontract BondToken is ERC20, Ownable {\r\n    uint256 public constant INITIAL_SUPPLY = 1000000 * 10**18; // 1 million tokens with 18 decimals\r\n\r\n    constructor(\r\n        string memory _name,\r\n        string memory _symbol,\r\n        address initialOwner\r\n    ) ERC20(_name, _symbol) Ownable(initialOwner) {\r\n        _mint(msg.sender, INITIAL_SUPPLY);\r\n    }\r\n\r\n    function mint(address to, uint256 amount) public onlyOwner {\r\n        _mint(to, amount);\r\n    }\r\n}\r\n",
  "sourcePath": "C:\\Users\\Raphael Lima\\Documents\\repos\\BondsTradingProject\\contracts\\BondToken.sol",
  "compiler": {
    "name": "solc",
    "version": "0.8.21+commit.d9974bed.Emscripten.clang"
  },
  "schemaVersion": "3.4.16",
  "updatedAt": "2025-12-12T03:55:21.528Z",
  "networkType": "ethereum",
  "devdoc": {
    "errors": {
      "ERC20InsufficientAllowance(address,uint256,uint256)": [
        {
          "details": "Indicates a failure with the `spender`s `allowance`. Used in transfers.",
          "params": {
            "allowance": "Amount of tokens a `spender` is allowed to operate with.",
            "needed": "Minimum amount required to perform a transfer.",
            "spender": "Address that may be allowed to operate on tokens without being their owner."
          }
        }
      ],
      "ERC20InsufficientBalance(address,uint256,uint256)": [
        {
          "details": "Indicates an error related to the current `balance` of a `sender`. Used in transfers.",
          "params": {
            "balance": "Current balance for the interacting account.",
            "needed": "Minimum amount required to perform a transfer.",
            "sender": "Address whose tokens are being transferred."
          }
        }
      ],
      "ERC20InvalidApprover(address)": [
        {
          "details": "Indicates a failure with the `approver` of a token to be approved. Used in approvals.",
          "params": {
            "approver": "Address initiating an approval operation."
          }
        }
      ],
      "ERC20InvalidReceiver(address)": [
        {
          "details": "Indicates a failure with the token `receiver`. Used in transfers.",
          "params": {
            "receiver": "Address to which tokens are being transferred."
          }
        }
      ],
      "ERC20InvalidSender(address)": [
        {
          "details": "Indicates a failure with the token `sender`. Used in transfers.",
          "params": {
            "sender": "Address whose tokens are being transferred."
          }
        }
      ],
      "ERC20InvalidSpender(address)": [
        {
          "details": "Indicates a failure with the `spender` to be approved. Used in approvals.",
          "params": {
            "spender": "Address that may be allowed to operate on tokens without being their owner."
          }
        }
      ],
      "OwnableInvalidOwner(address)": [
        {
          "details": "The owner is not a valid owner account. (eg. `address(0)`)"
        }
      ],
      "OwnableUnauthorizedAccount(address)": [
        {
          "details": "The caller account is not authorized to perform an operation."
        }
      ]
    },
    "events": {
      "Approval(address,address,uint256)": {
        "details": "Emitted when the allowance of a `spender` for an `owner` is set by a call to {approve}. `value` is the new allowance."
      },
      "Transfer(address,address,uint256)": {
        "details": "Emitted when `value` tokens are moved from one account (`from`) to another (`to`). Note that `value` may be zero."
      }
    },
    "kind": "dev",
    "methods": {
      "allowance(address,address)": {
        "details": "Returns the remaining number of tokens that `spender` will be allowed to spend on behalf of `owner` through {transferFrom}. This is zero by default. This value changes when {approve} or {transferFrom} are called."
      },
      "approve(address,uint256)": {
        "details": "See {IERC20-approve}. NOTE: If `value` is the maximum `uint256`, the allowance is not updated on `transferFrom`. This is semantically equivalent to an infinite approval. Requirements: - `spender` cannot be the zero address."
      },
      "balanceOf(address)": {
        "details": "Returns the value of tokens owned by `account`."
      },
      "decimals()": {
        "details": "Returns the number of decimals used to get its user representation. For example, if `decimals` equals `2`, a balance of `505` tokens should be displayed to a user as `5.05` (`505 / 10 ** 2`). Tokens usually opt for a value of 18, imitating the relationship between Ether and Wei. This is the default value returned by this function, unless it's overridden. NOTE: This information is only used for _display_ purposes: it in no way affects any of the arithmetic of the contract, including {IERC20-balanceOf} and {IERC20-transfer}."
      },
      "name()": {
        "details": "Returns the name of the token."
      },
      "owner()": {
        "details": "Returns the address of the current owner."
      },
      "renounceOwnership()": {
        "details": "Leaves the contract without owner. It will not be possible to call `onlyOwner` functions. Can only be called by the current owner. NOTE: Renouncing ownership will leave the contract without an owner, thereby disabling any functionality that is only available to the owner."
      },
      "symbol()": {
        "details": "Returns the symbol of the token, usually a shorter version of the name."
      },
      "totalSupply()": {
        "details": "Returns the value of tokens in existence."
      },
      "transfer(address,uint256)": {
        "details": "See {IERC20-transfer}. Requirements: - `to` cannot be the zero address. - the caller must have a balance of at least `value`."
      },
      "transferFrom(address,address,uint256)": {
        "details": "See {IERC20-transferFrom}. Skips emitting an {Approval} event indicating an allowance update. This is not required by the ERC. See {xref-ERC20-_approve-address-address-uint256-bool-}[_approve]. NOTE: Does not update the allowance if the current allowance is the maximum `uint256`. Requirements: - `from` and `to` cannot be the zero address. - `from` must have a balance of at least `value`. - the caller must have allowance for ``from``'s tokens of at least `value`."
      },
      "transferOwnership(address)": {
        "details": "Transfers ownership of the contract to a new account (`newOwner`). Can only be called by the current owner."
      }
    },
    "version": 1
  },
  "userdoc": {
    "kind": "user",
    "methods": {},
    "version": 1
  }
}